{
  "contractName": "brickToken",
  "abi": [
    {
      "inputs": [],
      "stateMutability": "nonpayable",
      "type": "constructor"
    },
    {
      "anonymous": false,
      "inputs": [
        {
          "indexed": true,
          "internalType": "address",
          "name": "_from",
          "type": "address"
        },
        {
          "indexed": true,
          "internalType": "address",
          "name": "_to",
          "type": "address"
        },
        {
          "indexed": false,
          "internalType": "uint256",
          "name": "_value",
          "type": "uint256"
        }
      ],
      "name": "Transfer",
      "type": "event"
    },
    {
      "inputs": [],
      "name": "name",
      "outputs": [
        {
          "internalType": "string",
          "name": "",
          "type": "string"
        }
      ],
      "stateMutability": "view",
      "type": "function"
    },
    {
      "inputs": [],
      "name": "symbol",
      "outputs": [
        {
          "internalType": "string",
          "name": "",
          "type": "string"
        }
      ],
      "stateMutability": "view",
      "type": "function"
    },
    {
      "inputs": [],
      "name": "totalSupply",
      "outputs": [
        {
          "internalType": "uint256",
          "name": "",
          "type": "uint256"
        }
      ],
      "stateMutability": "view",
      "type": "function"
    },
    {
      "inputs": [
        {
          "internalType": "address",
          "name": "_owner",
          "type": "address"
        }
      ],
      "name": "balanceOf",
      "outputs": [
        {
          "internalType": "uint256",
          "name": "balance",
          "type": "uint256"
        }
      ],
      "stateMutability": "view",
      "type": "function"
    },
    {
      "inputs": [
        {
          "internalType": "address",
          "name": "_to",
          "type": "address"
        },
        {
          "internalType": "uint256",
          "name": "_value",
          "type": "uint256"
        }
      ],
      "name": "transfer",
      "outputs": [
        {
          "internalType": "bool",
          "name": "success",
          "type": "bool"
        }
      ],
      "stateMutability": "nonpayable",
      "type": "function"
    }
  ],
  "bytecode": "0x608060405234801561001057600080fd5b506040518060400160405280600b81526020017f427269636b20546f6b656e0000000000000000000000000000000000000000008152506000908051906020019061005c92919061024d565b506040518060400160405280600481526020017f4252434b00000000000000000000000000000000000000000000000000000000815250600190805190602001906100a892919061024d565b50600060028190555033600360006101000a81548173ffffffffffffffffffffffffffffffffffffffff021916908373ffffffffffffffffffffffffffffffffffffffff160217905550610129600360009054906101000a900473ffffffffffffffffffffffffffffffffffffffff166402540be40061012e60201b60201c565b6102ea565b600360009054906101000a900473ffffffffffffffffffffffffffffffffffffffff1673ffffffffffffffffffffffffffffffffffffffff163373ffffffffffffffffffffffffffffffffffffffff16146101f1576040517f08c379a00000000000000000000000000000000000000000000000000000000081526004018080602001828103825260158152602001807f6d7573742062652061646d696e20746f206d696e74000000000000000000000081525060200191505060405180910390fd5b80600460008473ffffffffffffffffffffffffffffffffffffffff1673ffffffffffffffffffffffffffffffffffffffff1681526020019081526020016000206000828254019250508190555080600254016002819055505050565b828054600181600116156101000203166002900490600052602060002090601f016020900481019282601f1061028e57805160ff19168380011785556102bc565b828001600101855582156102bc579182015b828111156102bb5782518255916020019190600101906102a0565b5b5090506102c991906102cd565b5090565b5b808211156102e65760008160009055506001016102ce565b5090565b61055f806102f96000396000f3fe608060405234801561001057600080fd5b50600436106100575760003560e01c806306fdde031461005c57806318160ddd146100df57806370a08231146100fd57806395d89b4114610155578063a9059cbb146101d8575b600080fd5b61006461023c565b6040518080602001828103825283818151815260200191508051906020019080838360005b838110156100a4578082015181840152602081019050610089565b50505050905090810190601f1680156100d15780820380516001836020036101000a031916815260200191505b509250505060405180910390f35b6100e76102de565b6040518082815260200191505060405180910390f35b61013f6004803603602081101561011357600080fd5b81019080803573ffffffffffffffffffffffffffffffffffffffff1690602001909291905050506102e8565b6040518082815260200191505060405180910390f35b61015d610331565b6040518080602001828103825283818151815260200191508051906020019080838360005b8381101561019d578082015181840152602081019050610182565b50505050905090810190601f1680156101ca5780820380516001836020036101000a031916815260200191505b509250505060405180910390f35b610224600480360360408110156101ee57600080fd5b81019080803573ffffffffffffffffffffffffffffffffffffffff169060200190929190803590602001909291905050506103d3565b60405180821515815260200191505060405180910390f35b606060008054600181600116156101000203166002900480601f0160208091040260200160405190810160405280929190818152602001828054600181600116156101000203166002900480156102d45780601f106102a9576101008083540402835291602001916102d4565b820191906000526020600020905b8154815290600101906020018083116102b757829003601f168201915b5050505050905090565b6000600254905090565b6000600460008373ffffffffffffffffffffffffffffffffffffffff1673ffffffffffffffffffffffffffffffffffffffff168152602001908152602001600020549050919050565b606060018054600181600116156101000203166002900480601f0160208091040260200160405190810160405280929190818152602001828054600181600116156101000203166002900480156103c95780601f1061039e576101008083540402835291602001916103c9565b820191906000526020600020905b8154815290600101906020018083116103ac57829003601f168201915b5050505050905090565b600081600460003373ffffffffffffffffffffffffffffffffffffffff1673ffffffffffffffffffffffffffffffffffffffff168152602001908152602001600020541161042057600080fd5b81600460003373ffffffffffffffffffffffffffffffffffffffff1673ffffffffffffffffffffffffffffffffffffffff1681526020019081526020016000206000828254039250508190555081600460008573ffffffffffffffffffffffffffffffffffffffff1673ffffffffffffffffffffffffffffffffffffffff168152602001908152602001600020600082825401925050819055508273ffffffffffffffffffffffffffffffffffffffff163373ffffffffffffffffffffffffffffffffffffffff167fddf252ad1be2c89b69c2b068fc378daa952ba7f163c4a11628f55a4df523b3ef846040518082815260200191505060405180910390a3600190509291505056fea264697066735822122012aa250732f5ec8d5bf1ea7e10ac5698003c0f9a646d9d9295f440de628dd9e964736f6c63430007030033",
  "immutableReferences": {},
  "source": "// \"SPDX-License-Identifier: MIT\"\npragma solidity ^0.7.3;\n\n\n/**\n@dev a basic implementation of ERC20 without approve and allowance functions.\n*/\ncontract brickToken {\n  string TOKEN_NAME;\n  string TOKEN_SYMBOL;\n  uint supply;\n  address admin;\n\n  constructor(){\n    TOKEN_NAME = \"Brick Token\";\n    TOKEN_SYMBOL = \"BRCK\";\n    supply = 0;\n\n    //deployer of this contract? the same person who deployed the contract should be able to mint new tokens.\n    admin = msg.sender;\n    _mint(admin, 10000000000);\n  }\n\n\n  mapping(address => uint) userBalance;\n  event Transfer(address indexed _from, address indexed _to, uint256 _value);\n\n\n  //returns the name of the token\n  function name() public view returns (string memory){\n    return TOKEN_NAME;\n  }\n  function symbol() public view returns (string memory){\n    return TOKEN_SYMBOL;\n  }\n  function totalSupply() public view returns (uint256){\n    return supply;\n  }\n\n  function balanceOf(address _owner) public view returns (uint256 balance){\n    return userBalance[_owner];\n  }\n  function transfer(address _to, uint256 _value) public returns (bool success){\n    require(userBalance[msg.sender]>_value);\n    userBalance[msg.sender]-=_value;\n    userBalance[_to]+=_value;\n    emit Transfer(msg.sender, _to, _value);\n    return true;\n  }\n\n  // Minting function, restricted to contract deployment\n  function _mint(address _to, uint256 _value) private {\n    require(msg.sender==admin, \"must be admin to mint\");\n    userBalance[_to]+=_value;\n    /* emit Transfer(_from, _to, _value); */\n    supply = supply + _value;\n  }\n\n\n\n}\n",
  "sourcePath": "/home/mv/Documents/code/brick-token/contracts/brickToken.sol",
  "compiler": {
    "name": "solc",
    "version": "0.7.3+commit.9bfce1f6.Emscripten.clang"
  },
  "schemaVersion": "3.3.4",
  "updatedAt": "2021-04-17T12:42:05.115Z",
  "devdoc": {
    "details": "a basic implementation of ERC20 without approve and allowance functions.",
    "kind": "dev",
    "methods": {},
    "version": 1
  },
  "userdoc": {
    "kind": "user",
    "methods": {},
    "version": 1
  }
}